{
  "contractName": "PermissionContract",
  "abi": [
    {
      "constant": true,
      "inputs": [],
      "name": "owner",
      "outputs": [
        {
          "name": "",
          "type": "address"
        }
      ],
      "payable": false,
      "stateMutability": "view",
      "type": "function"
    },
    {
      "inputs": [],
      "payable": false,
      "stateMutability": "nonpayable",
      "type": "constructor"
    },
    {
      "constant": false,
      "inputs": [
        {
          "name": "_address",
          "type": "address"
        },
        {
          "name": "_fname",
          "type": "string"
        },
        {
          "name": "_lkey",
          "type": "uint256"
        },
        {
          "name": "_balance",
          "type": "uint256"
        }
      ],
      "name": "saveDetails",
      "outputs": [],
      "payable": false,
      "stateMutability": "nonpayable",
      "type": "function"
    },
    {
      "constant": false,
      "inputs": [
        {
          "name": "_from_address",
          "type": "address"
        },
        {
          "name": "_which_address",
          "type": "address"
        }
      ],
      "name": "requestAccessPermission",
      "outputs": [],
      "payable": false,
      "stateMutability": "nonpayable",
      "type": "function"
    },
    {
      "constant": false,
      "inputs": [
        {
          "name": "_address",
          "type": "address"
        }
      ],
      "name": "approveRequest",
      "outputs": [
        {
          "name": "",
          "type": "address"
        },
        {
          "name": "",
          "type": "uint256"
        },
        {
          "name": "",
          "type": "address"
        },
        {
          "name": "",
          "type": "uint256"
        }
      ],
      "payable": false,
      "stateMutability": "nonpayable",
      "type": "function"
    },
    {
      "constant": true,
      "inputs": [
        {
          "name": "_address",
          "type": "address"
        }
      ],
      "name": "AccessUserDetails",
      "outputs": [
        {
          "name": "",
          "type": "string"
        },
        {
          "name": "",
          "type": "uint256"
        },
        {
          "name": "",
          "type": "uint256"
        }
      ],
      "payable": false,
      "stateMutability": "view",
      "type": "function"
    },
    {
      "constant": false,
      "inputs": [],
      "name": "kill",
      "outputs": [],
      "payable": false,
      "stateMutability": "nonpayable",
      "type": "function"
    }
  ],
  "bytecode": "0x60806040526040805190810160405280600d81526020017f4e6f205065726d697373696f6e000000000000000000000000000000000000008152506001908051906020019061004f9291906100a2565b5034801561005c57600080fd5b50336000806101000a81548173ffffffffffffffffffffffffffffffffffffffff021916908373ffffffffffffffffffffffffffffffffffffffff160217905550610147565b828054600181600116156101000203166002900490600052602060002090601f016020900481019282601f106100e357805160ff1916838001178555610111565b82800160010185558215610111579182015b828111156101105782518255916020019190600101906100f5565b5b50905061011e9190610122565b5090565b61014491905b80821115610140576000816000905550600101610128565b5090565b90565b610ad0806101566000396000f300608060405260043610610078576000357c0100000000000000000000000000000000000000000000000000000000900463ffffffff168063061dff9a1461007d57806341c0e1b5146101415780635e9c5ac81461015857806362a333ba146101bb5780638da5cb5b14610258578063f195315b146102af575b600080fd5b34801561008957600080fd5b506100be600480360381019080803573ffffffffffffffffffffffffffffffffffffffff169060200190929190505050610379565b604051808573ffffffffffffffffffffffffffffffffffffffff1673ffffffffffffffffffffffffffffffffffffffff1681526020018481526020018373ffffffffffffffffffffffffffffffffffffffff1673ffffffffffffffffffffffffffffffffffffffff16815260200182815260200194505050505060405180910390f35b34801561014d57600080fd5b50610156610545565b005b34801561016457600080fd5b506101b9600480360381019080803573ffffffffffffffffffffffffffffffffffffffff169060200190929190803573ffffffffffffffffffffffffffffffffffffffff1690602001909291905050506105d6565b005b3480156101c757600080fd5b50610256600480360381019080803573ffffffffffffffffffffffffffffffffffffffff169060200190929190803590602001908201803590602001908080601f016020809104026020016040519081016040528093929190818152602001838380828437820191505050505050919291929080359060200190929190803590602001909291905050506106e7565b005b34801561026457600080fd5b5061026d61075c565b604051808273ffffffffffffffffffffffffffffffffffffffff1673ffffffffffffffffffffffffffffffffffffffff16815260200191505060405180910390f35b3480156102bb57600080fd5b506102f0600480360381019080803573ffffffffffffffffffffffffffffffffffffffff169060200190929190505050610781565b6040518080602001848152602001838152602001828103825285818151815260200191508051906020019080838360005b8381101561033c578082015181840152602081019050610321565b50505050905090810190601f1680156103695780820380516001836020036101000a031916815260200191505b5094505050505060405180910390f35b600080600080600080600080600460008a73ffffffffffffffffffffffffffffffffffffffff1673ffffffffffffffffffffffffffffffffffffffff16815260200190815260200160002060000160009054906101000a900473ffffffffffffffffffffffffffffffffffffffff169350600460008a73ffffffffffffffffffffffffffffffffffffffff1673ffffffffffffffffffffffffffffffffffffffff168152602001908152602001600020600101549250600083141561043d57600192505b82600460008b73ffffffffffffffffffffffffffffffffffffffff1673ffffffffffffffffffffffffffffffffffffffff16815260200190815260200160002060010181905550600360008573ffffffffffffffffffffffffffffffffffffffff1673ffffffffffffffffffffffffffffffffffffffff16815260200190815260200160002060000160009054906101000a900473ffffffffffffffffffffffffffffffffffffffff169150600360008573ffffffffffffffffffffffffffffffffffffffff1673ffffffffffffffffffffffffffffffffffffffff168152602001908152602001600020600101549050838383839750975097509750505050509193509193565b6000809054906101000a900473ffffffffffffffffffffffffffffffffffffffff1673ffffffffffffffffffffffffffffffffffffffff163373ffffffffffffffffffffffffffffffffffffffff1614156105d4576000809054906101000a900473ffffffffffffffffffffffffffffffffffffffff1673ffffffffffffffffffffffffffffffffffffffff16ff5b565b600080600360008573ffffffffffffffffffffffffffffffffffffffff1673ffffffffffffffffffffffffffffffffffffffff1681526020019081526020016000209150828260000160006101000a81548173ffffffffffffffffffffffffffffffffffffffff021916908373ffffffffffffffffffffffffffffffffffffffff160217905550600460008473ffffffffffffffffffffffffffffffffffffffff1673ffffffffffffffffffffffffffffffffffffffff1681526020019081526020016000209050838160000160006101000a81548173ffffffffffffffffffffffffffffffffffffffff021916908373ffffffffffffffffffffffffffffffffffffffff16021790555050505050565b6000600260008673ffffffffffffffffffffffffffffffffffffffff1673ffffffffffffffffffffffffffffffffffffffff168152602001908152602001600020905083816000019080519060200190610742929190610978565b508281600101819055508181600201819055505050505050565b6000809054906101000a900473ffffffffffffffffffffffffffffffffffffffff1681565b60606000806000806000600460008873ffffffffffffffffffffffffffffffffffffffff1673ffffffffffffffffffffffffffffffffffffffff16815260200190815260200160002060010154925060018314156108c857600260008873ffffffffffffffffffffffffffffffffffffffff1673ffffffffffffffffffffffffffffffffffffffff1681526020019081526020016000206000016001908054600181600116156101000203166002900461083c9291906109f8565b50600260008873ffffffffffffffffffffffffffffffffffffffff1673ffffffffffffffffffffffffffffffffffffffff168152602001908152602001600020600101549150600260008873ffffffffffffffffffffffffffffffffffffffff1673ffffffffffffffffffffffffffffffffffffffff1681526020019081526020016000206002015490505b60018282828054600181600116156101000203166002900480601f0160208091040260200160405190810160405280929190818152602001828054600181600116156101000203166002900480156109615780601f1061093657610100808354040283529160200191610961565b820191906000526020600020905b81548152906001019060200180831161094457829003601f168201915b505050505092509550955095505050509193909250565b828054600181600116156101000203166002900490600052602060002090601f016020900481019282601f106109b957805160ff19168380011785556109e7565b828001600101855582156109e7579182015b828111156109e65782518255916020019190600101906109cb565b5b5090506109f49190610a7f565b5090565b828054600181600116156101000203166002900490600052602060002090601f016020900481019282601f10610a315780548555610a6e565b82800160010185558215610a6e57600052602060002091601f016020900482015b82811115610a6d578254825591600101919060010190610a52565b5b509050610a7b9190610a7f565b5090565b610aa191905b80821115610a9d576000816000905550600101610a85565b5090565b905600a165627a7a72305820040f849e21b290a788db61d9432539c774c74e16969de4b7640ac5bfedc66beb0029",
  "source": "pragma solidity ^0.4.18;\n\ncontract PermissionContract\n{\n    /* define variable owner of the tyep address*/\n    address public owner;\n    string value = \"No Permission\";\n    \n    struct ExternalUser {\n        string fname;\n        uint key;\n        uint balance;\n    }\n    \n    mapping (address => ExternalUser) externalUsers;\n    \n    struct RequestPermission{\n        address for_address;\n        uint permission; // 0 no permission, 1 permission requested, 2 permission granted\n    } \n    \n    mapping (address => RequestPermission)  requestPermission;\n    \n    \n    struct GrantPermission{\n        address for_address;\n        uint permission; // 0 no permission, 1 permission granted\n    } \n    \n    \n    mapping (address => GrantPermission)  grantPermission;\n    \n    \n    /*\n    saveDetails method to save all users details on system e.g firstname, publick key and bitcoin balance \n    */\n    function saveDetails(address _address, string _fname, uint _lkey,uint _balance) public{\n        var externalUser= externalUsers[_address];\n        externalUser.fname = _fname;\n        externalUser.key = _lkey;\n        externalUser.balance = _balance;\n    } \n   \n    /*\n    requestAccessPermission method allows an address to get view persimmion for other public address\n    */\n    function requestAccessPermission(address _from_address, address _which_address)  public{\n       var reqpermission = requestPermission[_from_address];\n        reqpermission.for_address = _which_address;\n        \n        var grntpermission = grantPermission[_which_address];\n        grntpermission.for_address = _from_address;\n    }\n    \n   \n   /*\n    approveRequest method allows apprpver to give read permision to other public address\n    */\n    function approveRequest(address _address) public returns(address,uint,address,uint){\n        \n        address temp = grantPermission[_address].for_address;\n        uint tmpper = grantPermission[_address].permission;\n        \n        if(tmpper == 0)\n        {\n            tmpper = 1;\n        }\n        \n        grantPermission[_address].permission = tmpper;\n        \n         address temp1 = requestPermission[temp].for_address;\n        uint tmpper1 = requestPermission[temp].permission;\n        return (temp,tmpper,temp1,tmpper1);\n    }\n    \n    /*\n    other approved public address can access any user's data based on permission\n    */\n    function AccessUserDetails(address _address) view public returns (string,uint,uint)\n    {\n        //address tmpaddr = grantPermission[_address].for_address;\n        uint tmpper = grantPermission[_address].permission;\n        \n        //string  name = \"no permission\";\n        uint _key;\n        uint _balance;\n        if(tmpper == 1){\n            value =  externalUsers[_address].fname;\n            _key = externalUsers[_address].key;\n            _balance = externalUsers[_address].balance;\n        }\n        \n        return(value,_key,_balance);\n    }\n    \n   \n    \n    /* this function is executed at initialization and sets the owner of the contract */\n    function PermissionContract() public {\n        owner = msg.sender;\n    }\n    \n   \n    \n    /* Function to recover the funds on the contract. owner of the contract can call this function */\n    function kill() public{\n        \n        if(msg.sender == owner){\n            selfdestruct(owner);\n        }\n    }\n}\n\n",
  "sourcePath": "/home/anurag/Desktop/blockchain/AccessSample/contracts/PermissionContract.sol",
  "compiler": {
    "name": "solc",
    "version": "0.4.25+commit.59dbf8f1.Emscripten.clang"
  },
  "schemaVersion": "2.0.2",
  "updatedAt": "2019-01-11T07:37:42.818Z"
}